:080000000C943A000C94670017
:100008000C946F000C9474000C9400000C94000085
:100018000C9400000C9400000C9400000C947F00D9
:100028000C9400000C9400000C9400000C94000048
:100038000C9400000C9400000C9400000C94000038
:100048000C9400000C9400000C94000000000000C8
:10005800000000003F065B4F666D7D077F67080064
:10006800040054000A0060025C000000F894EE27C7
:10007800ECBBF1E0FBBFEBBFE5BF8DE0A2E0BB2727
:10008800ED938A95E9F780E098E0A0E6ED93019773
:10009800E9F7E6E6F0E085919591009761F0A59182
:1000A800B59105901590BF01F00105900D9201974B
:1000B800E1F7FB01F0CFEFE5EDBFE8E0EEBFC0E60A
:1000C800D2E00C94AF00EA93FA93E1E0F0E05F012C
:1000D800F991E9911895EA93EFB7AA24BB2408C0CF
:1000E800EA93EFB744245524662477248824992476
:1000F800EFBFE9911895EA93FA93EFB7EA93E8ED21
:10010800EDBDE0EFECBDE1E0F0E0EA15FB0519F428
:10011800F20131962F01E4E6F0E0E415F50529F443
:10012800F30131963F0144245524ECE3F0E0E61551
:10013800F70529F4F40131964F0166247724ECE39E
:10014800F0E0E815F90511F488249924E991EFBF46
:10015800F991E9911895EFEFEABBE0E0EBBBE7BB5B
:10016800E8BBEFEFE4BBEEEFE5BBE0E0E1BBE2BBF1
:10017800E5E0E3BFE0E0E2BFECBFEFBDE2E0EEBDEB
:10018800E8EDEDBDE0EFECBDE0E0E7BDE6BDEBBDC1
:10019800EABDE9BDE8BDE2BDE5BDE4BDE3BDE4E01F
:1001A800E9BFEBB7E06EEBBFEAE0E5BFE0E0E4BF34
:1001B800E0EEEABFE0E0EAB9E0E8E8B9E0E0E0BF95
:1001C800E6B9EDB9E6BF7894EFEDE5BBD20116D0FC
:1001D800EFEEE5BBD2011ED0E7EFE5BBD3010ED0B1
:1001E800EBEFE5BBD30116D0EDEFE5BBD40106D0AC
:1001F800EEEFE5BBD4010ED0E7CFFFCFEAE0F0E0A9
:100208000E944001E05AFD4FE081EBBBA1E0B0E065
:100218000C941A01EAE0F0E00E943B01E05AFD4F1D
:10022800E081EBBBA1E0B0E00C941A01109639F024
:1002380080ED97E00197F1F7A8951197C9F7089510
:10024800F195E195F04008950024112490E1AA0F5A
:10025800BB1F001C111C0E1A1F0A18F40E0E1F1EBD
:1002680001C0A1609A9599F7FD01D001089512D0B7
:10027800EBDF0EF4E5DF0895E894B7FF04C0A0951E
:10028800B09511966894F7FDDBDFDEDFFD010EF413
:10029800D7DF0895E894F7FF02C0D2DF6894B7FF6C
:1002A80006C0A095B095119600F8039400FA089539
:00000001FF
