S0100000377365676D656E742E73726563EA
S11300000C9439000C944E000C944E000C944E0049
S11300100C944E000C944E000C944E000C944E0024
S11300200C944E000C944E000C944E000C944E0014
S11300300C944E000C944E000C944E000C944E0004
S11300400C944E000C944E000C944E000C944E00F4
S11300500C944E00E900DF00E400C200DA00D10095
S1130060C700B300D500BD00CC00AE00B800A900A5
S1130070A40011241FBECFE5D8E0DEBFCDBF10E041
S1130080A0E6B0E0ECEEF1E002C005900D92A037DE
S1130090B107D9F70E9483000C94F4000C9400007B
S11300A0CF93DF93CDB7DEB760970FB6F894DEBF7A
S11300B00FBECDBFAC0180E1E0E6F0E0DE011196B9
S11300C001900D928A95E1F75523A4F0FE01319633
S11300D020E030E0919195BB6FE38DE093E06150B7
S11300E080409040E1F700C000002F5F3F4F42176F
S11300F0530784F760960FB6F894DEBF0FBECDBFEA
S1130100DF91CF910895CF93DF931F92CDB7DEB7E0
S1130110A09AA19AA29AA39AA49AD098D198D29874
S1130120D3981ABA8FEF8BBB89B3806F8983E98127
S11301308E2F90E0FC01E05FF109EF30F105A0F7AC
S1130140E65DFF4F0C94EE0081E090E00E945000C9
S1130150EBCF82E090E00E945000E6CF84E090E094
S11301600E945000E1CF88E090E00E945000DCCF74
S113017083E090E00E945000D7CF86E090E00E9498
S11301805000D2CF8CE090E00E945000CDCF89E0A7
S113019090E00E945000C8CF85E090E00E9450009B
S11301A0C3CF8AE090E00E94500087E090E00E9474
S11301B05000BACF8BE090E00E945000B5CF8EE0A3
S11301C090E00E945000B0CF8DE090E00E9450007B
S11301D0ABCF8FE090E00E945000A6CFEE0FFF1F40
S10F01E00590F491E02D0994F894FFCFF1
S11301EC303102333435363738393A3B3C3D3E3FB7
S9030000FC
