:100000000C9441000C9400000C9400000C9400002F
:100010000C9400000C9400000C9400000C94000060
:100020000C9400000C9400000C9400000C94000050
:100030000C9400000C9400000C9400000C94000040
:100040000C9400000C9400000C9400000C94000030
:100050000C9400001027E80364000A00010000105F
:1000600000011000010001002D4E414E00494E4696
:10007000000080C00100600266000200640272009D
:100080000000F894EE27ECBBF1E0FBBFEBBFE5BF4F
:100090008DE0A2E0BB27ED938A95E9F780E098E038
:1000A000A0E6ED930197E9F7E4E7F0E085919591FB
:1000B000009761F0A591B59105901590BF01F001F1
:1000C00005900D920197E1F7FB01F0CFEFE5EDBF51
:1000D000E8E0EEBFC0E6D2E00C946E002897EBE0BB
:1000E000E883E0E0E983EA83EB8300E010E0E5BB2E
:1000F000E4BBE2BBEFE0E1BBE0E8E8B9E0E0E0BF91
:10010000A0E133D2E1E0E2BBE0B3E13169F4E0B376
:10011000E13119F4E0E0E2BBFACFA1E3ECD1E1E098
:10012000F0E0E883F9832DC0E0B3E13269F4E0B395
:10013000E13219F4E0E0E2BBFACFA2E3DCD1E2E085
:10014000F0E0E883F9831DC0E0B3E13469F4E0B383
:10015000E13419F4E0E0E2BBFACFA3E3CCD1E3E071
:10016000F0E0E883F9830DC0E0B3E13869F4E0B36F
:10017000E13819F4E0E0E2BBFACFAFE2BCD101E034
:1001800010E0A8ECB0E0B2D2E2E0E2BBE0B3E231D2
:1001900069F4E0B3E23119F4E0E0E2BBFACFA4E3A2
:1001A000AAD1E4E0F0E0E883F9832DC0E0B3E232C5
:1001B00069F4E0B3E23219F4E0E0E2BBFACFA5E380
:1001C0009AD1E5E0F0E0E883F9831DC0E0B3E234C2
:1001D00069F4E0B3E23419F4E0E0E2BBFACFA6E35D
:1001E0008AD1E6E0F0E0E883F9830DC0E0B3E238BD
:1001F00069F4E0B3E23819F4E0E0E2BBFACFAAE236
:100200007AD102E010E0A8ECB0E070D2E4E0E2BB0A
:10021000E0B3E43169F4E0B3E43119F4E0E0E2BBC7
:10022000FACFA7E368D1E7E0F0E0E883F9832DC0D7
:10023000E0B3E43269F4E0B3E43219F4E0E0E2BBA5
:10024000FACFA8E358D1E8E0F0E0E883F9831DC0D5
:10025000E0B3E43469F4E0B3E43419F4E0E0E2BB81
:10026000FACFA9E348D1E9E0F0E0E883F9830DC0D3
:10027000E0B3E43869F4E0B3E43819F4E0E0E2BB59
:10028000FACFADE238D103E010E0A8ECB0E02ED216
:10029000E8E0E2BBE0B3E83149F4E0B3E83119F457
:1002A000E0E0E2BBFACF1AD192D12CC0E0B3E83241
:1002B00061F4E0B3E83219F4E0E0E2BBFACFA0E386
:1002C0001AD1E0E0E883E9831DC0E0B3E83469F4C3
:1002D000E0B3E83419F4E0E0E2BBFACFADE30BD1D0
:1002E000EAE0F0E0E883F9830DC0E0B3E83869F4B0
:1002F000E0B3E83819F4E0E0E2BBFACFABE2FBD0C0
:1003000004E010E0A8ECB0E0F1D1A881B9811A971F
:10031000C0F4002E012A41F4AAE0A49FF001A59F99
:10032000F00D61D1AF0108C0AA81BB81EAE00E9453
:100330002C0359D1EA83FB83EBE0F0E0E883F983F7
:100340003EC0A881B9811A97D1F5F801E130A0E04B
:10035000FA0729F4EA81FB81DA0184D11BC0E2307B
:10036000A0E0FA0729F4EA81FB81DA016DD112C01D
:10037000E330A0E0FA0731F4AA81BB81FA01EA1B5D
:10038000FB0B08C0E430A0E0FA0739F4EA81FB81F6
:10039000E40FF51F662777272BD1A0D0E0E0EA9382
:1003A000A0E08ED02AD199D1ADB7BEB73F9309D086
:1003B0003F91ADB7BEB73F93B7D03F9108D1A2CE22
:1003C000FFCF24972FD19D01E0E0FAEC6AE97BE3AF
:1003D0000FD100E0AB85AA235AF4E885F9856A8538
:1003E0007B852AD10FD1D9012F5F3F4FEDE2EC93EE
:1003F0000ED14BD11E2F103059F4003049F40DD1DD
:10040000A130E0E0BE07E0E08E07E0E09E0751F497
:100410003F932F932F5F3F4FE12FE05DAF91BF914F
:10042000EC9301E0F4D055D1EDD0F7D0EAE0F0E064
:1004300060E070E02AD1DCD0E0D054D1C9F6D90117
:10044000E0E0EC93F4D02C960895FFE0FA95F1F7F4
:100450000895A4B3AF70A4BBA99AA898F6DFAA9A8E
:10046000F4DFA3B3AA98F1DFAA9AEFDFAA98A7FD59
:10047000F5CF0895A07FAB2BA5BBAA9AE6DFAA987B
:10048000E4DF0895AA93A998A4B3A76FA4BBB5B35A
:10049000BF70A881EFDFA881A295ECDFA99A0C9428
:1004A000E502AA9AD2DFE3B3AA98CFDFE07F0895EE
:1004B000CCDFF7DFAE2FF5DFA998E295EA2B0895A0
:1004C000AA93C7DFE881F0E0EC59FD4FE081A981F4
:1004D000AE0FD8DF5980488022960895BADFA2E097
:1004E000D1DFB7DFACE0CEDFB4DFA1E0CBDFE0E00F
:1004F0004E2E5E2E0895AA93EF93FF93A8816894E1
:10050000AA3019F0E894571430F04394E0E0EA93ED
:10051000A42DD6DF2EF053949CDFA89AA881B2DFD9
:10052000FF91EF910C94E502BA93AA931A93A981D3
:10053000BA81ED91A983BA831E2FE03019F0A12F63
:10054000DADFF5CF188123960895AA27BB271197E4
:10055000F1F70895AA93A998A4B3A76FA4BBB5B364
:10056000BF70A88187DFA99A30C0AA93AA98A898DB
:100570007880E881E058E0936602E881E054E093F7
:100580006702E3DFA0E3E6DFE0DFA0E3E3DFDDDF38
:10059000A0E3E0DFDADFA0E2DDDFD7DFA8E272DF91
:1005A000D4DFA4E06FDFD1DFA5E86CDFCEDFA4B33A
:1005B000AF70A4BBA99A7CDFE53011F0E0E005C084
:1005C00048DFA6E05FDF8ADFE1E02196089540E0A2
:1005D00050E0E0E0EA83EB83EBE0F0E0E883F983CE
:1005E00000E010E00895A881B981EA0FFB1F08958B
:1005F000EC83FD836E837F830895EC81FD816E81A2
:100600007F810895E887F9876A877B870895F5DFFA
:10061000A885B9858A859B850895AC81BD818E8129
:100620009F8108953A932A931A930A9308953B81E0
:100630002A81198108810895F09560957095E1955A
:10064000FF4F6F4F7F4F0895FA9FF02DEB9FF00DF6
:10065000EA9FE02DF10D08956E2F6A9FF0016B9FC8
:10066000F00D08950024112490E1AA0FBB1F001C77
:10067000111C0E1A1F0A18F40E0E1F1E01C0A160D5
:100680009A9599F7FD01D00108953F934F935F9399
:1006900000241124A00130E2AA0FBB1F881F991F5C
:1006A000001C111C441F551F0E1A1F0A460B570B26
:1006B00028F40E0E1F1E461F571F01C0A1603A9559
:1006C00059F7FD01BC01D001CA015F914F913F91E3
:1006D0000895DBDFFD01BC0108957A936A93FA93D4
:1006E000EA9308953097604070400895109639F06D
:1006F000A89580ED97E00197F1F71197C9F7089554
:00000001FF
